:020000040800F2
:10000000000800200101000897100008C50E000834
:1000100095100008910100082F1100080000000051
:100020000000000000000000000000009B1000081D
:100030009301000800000000991000089D100008BE
:100040001B0100081B0100081B0100081B01000820
:100050001B0100081B0100081B0100081B01000810
:100060001B0100081B0100081B0100081B01000800
:100070001B0100081B0100081B0100081B010008F0
:100080001B0100081B0100081B0100081B010008E0
:100090001B0100081B0100081B0100081B010008D0
:1000A0001B0100081B0100081B0100081B010008C0
:1000B0001B0100081B0100081B0100081B010008B0
:1000C0001B0100081B0100081B0100081B010008A0
:1000D0001B0100081B0100081B0100081B01000890
:1000E0001B0100081B0100081B010008DFF80CD0F1
:1000F00000F03CF8004800476F110008000800209D
:100100000648804706480047FEE7FEE7FEE7FEE7B1
:10011000FEE7FEE7FEE7FEE7FEE7FEE70111000867
:10012000ED00000840EA01039B0703D009E008C97D
:10013000121F08C0042AFAD203E011F8013B00F8AC
:10014000013B521EF9D27047D2B201E000F8012BF8
:10015000491EFBD270470022F6E710B513460A4647
:1001600004461946FFF7F0FF204610BD064C074D28
:1001700006E0E06840F0010394E807009847103477
:10018000AC42F6D3FFF7B6FFA4110008C411000873
:10019000FEE77047704700002DE9F84FDFF8B8918F
:1001A000002409F1040A0AF1040B23460F270BF17E
:1001B000040EC9E00125A5402A40AA427DD1674E20
:1001C000D1F804C0ACEB0608B44532D014DCBCF165
:1001D000030F3AD009DCBCF1000F2AD0BCF1010FAB
:1001E0001CD0BCF1020F31D11DE0BCF1110F17D0B2
:1001F000BCF1120F2AD119E0B8F5881F19D006DC1E
:10020000B8F5803F15D0B8F5801F1FD111E0B8F5C3
:10021000001F0ED0B8F5041F18D10AE0CB6815E016
:10022000CB681B1D12E0CB6808330FE0CB680C33A2
:100230000CE08B682BB1012B4FF0080303D0456114
:1002400004E0042302E0056100E00023FF2A01D856
:10025000064601E000F104064FEA840501D9A5F144
:100260002005D6F8008007FA05FC28EA0C0803FAF6
:1002700005F548EA0508C6F800804D68ED0062D52E
:10028000374DAE6946F00106AE61AD6924F0030654
:1002900005F001050095334D06EB050CDCF8085020
:1002A000A607360F07FA06F825EA0805DFF8B88032
:1002B000404503D14FF0000817E044E0DFF8AC8080
:1002C000404502D14FF001080FE0DFF8A48040451F
:1002D00002D14FF0020808E0DFF89880404502D1D3
:1002E0004FF0030801E04FF0040808FA06F848EA66
:1002F0000508CCF808804D68D9F80060ED034D463C
:1003000001D5164300E096432E604D68DAF8006090
:10031000AD03554601D5164300E096432E604D6867
:10032000DBF80060ED025D4601D5164300E0964320
:100330002E604D68DEF80060AD02754601D51643AB
:1003400000E096432E60641C0D682A46E5407FF469
:1003500031AFBDE8F88F000000040140000011102B
:10036000001002400000014000080140000C014064
:1003700000100140001401400AB1016170470904F6
:10038000FBE7000001488068704700000000002083
:1003900070B5040025D094F83D00002520B984F8FC
:1003A0003C50204600F0B8F8242084F83D00206836
:1003B000016821F0010101602068016841F40041F9
:1003C00001602068016821F40041016000F008FB31
:1003D0004D4A6168914201D84C4900E04C4988423D
:1003E00001D2012070BD4B492368B0FBF1F15E687A
:1003F00026F03F060E435E606368934206D94FF4D1
:10040000967359434FF47A73B1FBF3F12368491C97
:100410001E6A26F03F06314319626168914210D886
:100420004900401EB0FBF1F2521CC2F30B02042A39
:1004300001D2042022E0B0FBF1F0401CC0F30B001D
:100440001CE0A268F2B301EBC10303EB0116431EEB
:10045000B3FBF6F35B1C43F480431B0549D092B316
:1004600001EBC10202EB0111401EB0FBF1F0401C98
:10047000C0F30B0040F4804040F400402168CA699A
:100480004CF6FF739A431043C861D4E90710014347
:100490002068026822F0C00211430160D4E9030120
:1004A00001432068826848F2FF339A431143816018
:1004B000D4E9050108432168CA6822F0FF0210430D
:1004C000C86001E00EE016E02068016841F001011B
:1004D00001602564202084F83D00256384F83E50A7
:1004E000002070BD01EB4106431EB3FBF6F35B1C1D
:1004F000B3E70120C2E701EB4101401EB0FBF1F080
:10050000401CC0F30B00B7E7A086010080841E00EA
:1005100000093D0040420F0030B585B00021009138
:100520000191029103911E4D03681E4C122103227A
:100530001D48AB4216D1A36943F00803A361A36928
:10054000039203F008030493C023CDE90031694608
:10055000FFF722FEE06940F40010E061E06900F47A
:10056000001019E0114DAB4217D1A36943F0080305
:10057000A361A369039203F0080304934FF440635B
:10058000CDE900316946FFF707FEE06940F48000DD
:10059000E061E06900F48000049005B030BD000027
:1005A0000054004000100240000C01400058004080
:1005B0000248816802781144816070470000002081
:1005C000074810B5016841F010010160032000F0F8
:1005D00067F8002000F006F800F024F8002010BDB5
:1005E0000020024070B50D4D04464FF47A71287812
:1005F000B1FBF0F00A490968B1FBF0F000F04EFCE5
:1006000048B9102C07D200222146501E00F028F8CD
:1006100000206C6070BD012070BD00000000002053
:100620000C0000200C4808B5816941F0010181618E
:10063000816901F001010091C16941F08051C161FE
:10064000C06900F0805000900448416821F0E061EA
:1006500041F00071416008BD0010024000000140FF
:10066000F0B40E4B1B680C46C3F30223C3F107051D
:10067000042D00D90425191D072901D2002300E00B
:10068000DB1E012606FA05F1491E214099409E40D5
:10069000761E16403143F0BC00F04ABD0CED00E080
:1006A000064900F0070208684FF6FF03184040EAC9
:1006B0000220034A10430860704700000CED00E080
:1006C0000000FA052DE9F04186B0040004D094F84A
:1006D000A902002520B108E0012006B0BDE8F081A4
:1006E00084F8A852204600F05BF8032084F8A902A1
:1006F000206800F013FD04F11001142288466846BA
:10070000FFF710FD94E80F0000F0FBFC0226D0BBC1
:100710000021206800F009FD002001270FE000BF44
:1007200000EB800104EBC10181F8297001F8280F6A
:10073000C881CD700D614D61401CC0B28D61616892
:100740008142EDD8002011E000EB800104EBC101F3
:1007500081F8695181F8680181F86B51C1F87851CD
:10076000C1F87C51401CC0B2C1F88051616881421F
:10077000EAD8142241466846FFF7D4FC94E80F00FB
:1007800000F0C3FC10B184F8A962A5E784F82450F6
:1007900084F8A972206800F0B6FC00209DE70000F4
:1007A00008B500680649884208D10648C16941F485
:1007B0000001C161C06900F40000009008BD0000A4
:1007C000005C0040001002402DE9F8430546007827
:1007D000354CC00754D0E0690026C00008D4E06959
:1007E00040F08050E061E069012600F08050009008
:1007F0002E480168C90512D40168804641F4807111
:100800000160FFF7BFFD074605E000BFFFF7BAFD37
:10081000C01B642823D8D8F80000C005F6D5206A8C
:1008200010F4407021D0A98801F4407181421CD09D
:10083000206A1F49012220F440700A6000220A60E9
:100840002062C00711D0FFF79DFD074641F28838AE
:1008500008E000BFFFF796FDC11B414502D9032008
:10086000BDE8F883206A8007F4D5206A696820F41F
:100870004070084320621EB1E06920F08050E061C2
:100880002878800705D56068A96820F440400843AF
:1008900060602878C00605D56068E96820F48000AB
:1008A000084360600020DBE7001002400070004059
:1008B000400442422DE9F0470F46050061D0434E07
:1008C000306800F00700B84209D2306820F0070015
:1008D00038433060306800F00700B84251D12868D2
:1008E0003B4C810712D5400703D5606840F4E060B7
:1008F00060602878000703D5606840F4605060604D
:100900006068A96820F0F000084360602878C0079C
:1009100028D06868012810D02168022810D08907E3
:1009200000292EDA616821F0030101436160FFF7BD
:1009300029FD804641F288390DE021688903EFE7FF
:100940008901EDE7FFF71EFDA0EB0801494502D93B
:100950000320BDE8F0876068696800F00C00B0EB28
:10096000810FEFD1306800F00700B8420BD9306832
:1009700020F0070038433060306800F00700B842CC
:1009800001D00120E5E72878400705D56068E968CF
:1009900020F4E060084360602878000706D56068AE
:1009A000296920F4605040EAC100606000F028F836
:1009B0006168084AC1F30311515CC84006490860E8
:1009C00006480068FFF70EFE0020C2E70020024044
:1009D000001002408C1100080C00002004000020D0
:1009E0000448054900684968044AC1F30221515C82
:1009F000C84070470C000020001002409C11000805
:100A000012A185B00FC98DE80F0014A0144A006828
:100A100004905168134801F00C03042B10D0082BEC
:100A20000ED1C1F38343C9031DF803000AD55168F1
:100A300004AAC1F34041515C0A4A5043B0FBF1F0B3
:100A400005B0704708494843FAE70000020304056F
:100A5000060708090A0B0C0D0E0F1010010200000A
:100A60000010024000127A0000093D002DE9F84F05
:100A7000040070D02078C04DC00749D06868C0F32A
:100A80008100012807D06868C0F38100022809D1DD
:100A90006868C00306D52868800339D560680028D7
:100AA000E7D035E06068B0F5803F0BD010B1B0F50D
:100AB000A02F11D0286820F480302860286820F406
:100AC000802002E0286840F480302860606890B19F
:100AD000FFF758FC06460AE0286840F480202860AA
:100AE000F0E700BFFFF74EFC801B642873D828682E
:100AF0008003F7D50CE0FFF745FC064605E000BF94
:100B0000FFF740FC801B6428F0D828688003F7D4E6
:100B100020789A4E80074FF001094FF0000839D530
:100B2000686810F00C0F07D06868C0F381000228D5
:100B300009D16868C00306D42868800714D52069E5
:100B4000012808D110E02069B0B1C6F80090FFF785
:100B500019FC074605E00AE1FFF714FCC01B022858
:100B6000C4D828688007F7D52868616920F0F800A4
:100B700040EAC10028600DE0C6F80080FFF702FCE3
:100B8000074604E0FFF7FEFBC01B022823D82868B5
:100B90008007F7D4207800072CD57948A169D9B10E
:100BA000C0F80090FFF7EEFB074604E0FFF7EAFB12
:100BB000C01B02280FD8686A8007F7D571484FF428
:100BC000FA510068B0FBF1F0009000BF0098411EA0
:100BD0000091FAD20EE080E0C0F80080FFF7D2FB6F
:100BE000074604E0FFF7CEFBC01B022875D8686AF1
:100BF0008007F7D42078400760D5E8690027C00057
:100C000008D4E86940F08050E861E869012700F005
:100C1000805000905C480168C90513D40168834680
:100C200041F480710160FFF7ADFB824606E000BF32
:100C3000FFF7A8FBA0EB0A0064284ED8DBF8000001
:100C4000C005F5D5E06801280AD008B1052813D001
:100C5000286A20F001002862286A20F0040002E0DF
:100C6000286A40F001002862E06841F2883B98B1B0
:100C7000FFF788FB82460BE0286A40F004002862F8
:100C8000EEE700BFFFF77EFBA0EB0A0159455AD8FB
:100C9000286A8007F6D50CE0FFF774FB824605E072
:100CA000FFF770FBA0EB0A0159454CD8286A800772
:100CB000F6D41FB1E86920F08050E861E06988B39C
:100CC0006968C1F38101022944D00228C6F8608016
:100CD00004D0FFF757FB044638E034E0FFF752FB3F
:100CE000074604E0FFF74EFBC01B02282BD82868FC
:100CF0008001F7D4206AB0F5803F05D16868A1680B
:100D000020F4003008436860D4E9080108436968AA
:100D100021F4741108436860C6F86090FFF732FB55
:100D2000044606E025E000BFFFF72CFB001B02286D
:100D300009D828688001F7D51BE000BFFFF722FB28
:100D4000001B022802D90320BDE8F88F2868800123
:100D5000F4D40EE00128F7D06868226A00F48031EC
:100D6000914204D1616A00F47010884201D00120E0
:100D7000EAE70020E8E700000010024000004242DD
:100D8000800442420C0000200070004070B5040056
:100D900009D0606A002540B125616561A56294F8BB
:100DA000510040B10CE0012070BD6068B0F5827F59
:100DB000F4D0E561F2E784F85050204600F040F8A6
:100DC000022084F851002068016821F04001016090
:100DD000A088218900F4827001F404410843A189AC
:100DE00001F400610843217C01F002010843217DE8
:100DF00001F001010843218B01F400710843217FB8
:100E000001F03801084394F8201001F080010843F4
:100E1000218D01F40051084321680860A069042174
:100E200001EA1040216848602068C16921F400612E
:100E3000C1616565012084F85100002070BD00008B
:100E400000B585B0002100910191029103910068E5
:100E50000F4988421AD10F48816941F4805181615C
:100E6000816901F480510491816941F0040181613B
:100E70008069694600F004000490A02000900220E0
:100E80000190032003900448FFF786F905B000BDE8
:100E900000300140001002400008014010B5401E23
:100EA000B0F1807F01D3012010BD4FF0E0246061DC
:100EB0000F21601700F03CF90020A061072020619D
:100EC000002010BDFEE7000070B586B000252E485A
:100ED0000095019502950395816941F010018161AA
:100EE000816901F010010491816941F02001816163
:100EF000816901F020010491816941F0040181615F
:100F0000816901F004010491816941F00801816166
:100F100080691E4E00F008004FF400540490002237
:100F200021463046FFF728FA009401240220CDE93B
:100F30000240694601943046FFF72EF9144ECDE980
:100F40000045694630460294FFF726F948F25E7084
:100F50000324CDE9000469463046FFF71DF94FF23E
:100F60003F10CDE900040B4C69462046FFF714F909
:100F7000601500900848CDE9010569462046FFF755
:100F80000BF906B070BD00000010024000100140D7
:100F900000080140000C0140000011100D4810B580
:100FA0000B4901600C49416000214FF4804281608F
:100FB000C0E9031241618161C1610162FFF7E8F993
:100FC000002803D0BDE81040FFF7E4B810BD0000D2
:100FD0000054004010000020A08601000D4810B50C
:100FE0000B4901600C49416000214FF4804281604F
:100FF000C0E9031241618161C1610162FFF7C8F973
:10100000002803D0BDE81040FFF7C4B810BD0000B1
:101010000058004064000020A08601000F4810B571
:101020000D4901604FF48271416000218160C1600F
:101030004FF400720161C0E90512C16101624162B1
:1010400081620A21C162FFF7A1FE002803D0BDE83A
:101050001040FFF79FB810BD00300140B8000020DD
:101060000B4810B5094901600821416002218160E7
:1010700000218161C1610162FFF724FB002803D0D8
:10108000BDE81040FFF786B810BD0000005C0040CE
:1010900010010020FEE7704770477047FFF788BADD
:1010A00030B593B028216846FFF755F814210AA8F7
:1010B000FFF751F8002401200F94109411940104BB
:1010C00012948DE8130004904FF4E010CDE908105D
:1010D000022507956846FFF7C9FC0F20CDE90A05F0
:1010E0006802CDE90C4002210AA80E94FFF7E2FB4A
:1010F00010200F9012940FA8FFF766FB13B030BDBD
:1011000070470020704700207047012120F8401FE1
:1011100000210180818001820846704730F8401F1D
:1011200021F43F4101800020704700207047FEE716
:101130000907090E002804DB00F1E02080F8001404
:10114000704700F00F0000F1E02080F8141D704798
:1011500002E008C8121F08C1002AFAD17047704780
:10116000002001E001C1121F002AFBD17047FFF7E8
:1011700027FAFFF795FFFFF7A7FEFFF70FFFFFF72F
:101180002DFFFFF74BFFFFF76BFFFEE700000000AE
:101190000000000001020304060708090000000027
:1011A00001020304C4110008000000201000000028
:1011B00050110008D411000810000020F0070000B2
:1011C0006011000801000000100000000000000095
:0411D0000024F40003
:04000005080000ED02
:00000001FF
